{
  "_format": "hh-sol-artifact-1",
  "contractName": "TestCardanoVerifySignature",
  "sourceName": "contracts/blade/TestCardanoVerifySignature.sol",
  "abi": [
    {
      "inputs": [
        {
          "internalType": "bytes",
          "name": "txRaw",
          "type": "bytes"
        },
        {
          "internalType": "bytes",
          "name": "signature",
          "type": "bytes"
        },
        {
          "internalType": "bytes32",
          "name": "verifyingKey",
          "type": "bytes32"
        }
      ],
      "name": "check",
      "outputs": [
        {
          "internalType": "bool",
          "name": "",
          "type": "bool"
        }
      ],
      "stateMutability": "view",
      "type": "function"
    },
    {
      "inputs": [
        {
          "internalType": "bytes",
          "name": "keyHash",
          "type": "bytes"
        },
        {
          "internalType": "bytes",
          "name": "signature",
          "type": "bytes"
        },
        {
          "internalType": "bytes32",
          "name": "verifyingKey",
          "type": "bytes32"
        }
      ],
      "name": "checkMsg",
      "outputs": [
        {
          "internalType": "bool",
          "name": "",
          "type": "bool"
        }
      ],
      "stateMutability": "view",
      "type": "function"
    }
  ],
  "bytecode": "0x608060405234801561001057600080fd5b506103c8806100206000396000f3fe608060405234801561001057600080fd5b50600436106100365760003560e01c806309bcf3291461003b5780636bef0e1114610062575b600080fd5b61004e6100493660046101c5565b610075565b604051901515815260200160405180910390f35b61004e6100703660046101c5565b61014b565b60008060006120506001600160a01b0316620249f0898960405160200161009d929190610239565b60408051601f19818403018152908290526100c3918a908a908a906000906020016102af565b60408051601f19818403018152908290526100dd9161030b565b6000604051808303818686fa925050503d8060008114610119576040519150601f19603f3d011682016040523d82523d6000602084013e61011e565b606091505b509150915081801561013f57508080602001905181019061013f9190610327565b98975050505050505050565b60008060006120506001600160a01b0316620249f0898989898960016040516020016100c396959493929190610350565b60008083601f84011261018e57600080fd5b50813567ffffffffffffffff8111156101a657600080fd5b6020830191508360208285010111156101be57600080fd5b9250929050565b6000806000806000606086880312156101dd57600080fd5b853567ffffffffffffffff808211156101f557600080fd5b61020189838a0161017c565b9097509550602088013591508082111561021a57600080fd5b506102278882890161017c565b96999598509660400135949350505050565b6c03432b63637903bb7b936321d1609d1b81528183600d83013760009101600d01908152919050565b60005b8381101561027d578181015183820152602001610265565b50506000910152565b81835281816020850137506000828201602090810191909152601f909101601f19169091010190565b60808152600086518060808401526102ce8160a0850160208b01610262565b601f01601f1916820182810360a090810160208501526102f19082018789610286565b604084019590955250509015156060909101529392505050565b6000825161031d818460208701610262565b9190910192915050565b60006020828403121561033957600080fd5b8151801515811461034957600080fd5b9392505050565b60808152600061036460808301888a610286565b8281036020840152610377818789610286565b6040840195909552505090151560609091015294935050505056fea264697066735822122004ef2daeeb8c8cc3295c10ecb229527f21b31ee4cf99a42bd98535ee63ba02de64736f6c63430008130033",
  "linkReferences": {},
  "deployedLinkReferences": {}
}